:020000040800F2
:1000000000800120ED190008691900086B1900082B
:100010006D1900086F190008711900080000000030
:10002000000000000000000000000000731900083C
:1000300075190008000000007719000879190008F8
:100040003D1A00083D1A00083D1A00083D1A000834
:100050003D1A00083D1A00083D1A00083D1A000824
:100060003D1A00083D1A00083D1A00083D1A000814
:100070003D1A00083D1A00083D1A00083D1A000804
:100080003D1A00083D1A00083D1A00080000000053
:100090000000000000000000000000003D1A000801
:1000A0003D1A00083D1A00083D1A00083D1A0008D4
:1000B0003D1A00083D1A00083D1A00083D1A0008C4
:1000C0003D1A00083D1A00083D1A00083D1A0008B4
:1000D0003D1A00083D1A00088519000800000000BC
:1000E000951900083D1A00083D1A0008000000009C
:1000F0000000000000000000000000003D1A0008A1
:10010000000000003D1A00083D1A00083D1A0008D2
:1001100000000000000000000000000000000000DF
:100120003D1A00083D1A00083D1A00083D1A000853
:100130003D1A000800000000000000000000000060
:100140000000000000000000000000003D1A000850
:100150003D1A00083D1A00083D1A00083D1A000823
:100160003D1A00083D1A00080000000000000000D1
:10017000000000000000000000000000000000007F
:10018000000000003D1A0008000000000000000010
:040190003D1A00080C
:1001940010B5054C237833B9044B13B10448AFF3BD
:1001A40000800123237010BD100000200000000017
:1001B400881A000808B5034B1BB103490348AFF381
:1001C400008008BD0000000014000020881A000808
:1001D40053B94AB9002908BF00281CBF4FF0FF31AA
:1001E4004FF0FF3000F072B9ADF1080C6DE904CEA8
:1001F40000F006F8DDF804E0DDE9022304B07047FE
:100204002DE9F047089E04468846002B4BD18A42CC
:10021400154667D9B2FA82F24AB1C2F1200701FA4F
:1002240002F320FA07F7954047EA030894404FEA9F
:10023400154E230CB8FBFEF71FFA85FC0EFB17883E
:1002440043EA084307FB0CF1994209D9EB1807F17B
:10025400FF3080F01B81994240F21881023F2B4409
:100264005B1AA4B2B3FBFEF00EFB103344EA034462
:1002740000FB0CFCA44509D92C1900F1FF3380F0D4
:100284000781A44540F2048102382C4440EA074027
:10029400A4EB0C0400271EB1D4400023C6E900439C
:1002A4003946BDE8F0878B4209D9002E00F0EB8077
:1002B4000027C6E9000138463946BDE8F087B3FA9D
:1002C40083F7002F47D18B4202D3824200F2FA8097
:1002D400841A61EB030301209846002EE0D0C6E99E
:1002E4000048DDE702B9FFDEB2FA82F2002A40F0EC
:1002F4008F80491B4FEA154E1FFA85F80127B1FB81
:10030400FEFC230C0EFB1C1143EA014308FB0CF119
:10031400994207D9EB180CF1FF3002D2994200F24E
:10032400CD808446591AA3B2B1FBFEF00EFB101423
:1003340043EA044408FB00F8A04507D92C1900F14E
:10034400FF3302D2A04500F2B6801846A4EB08049D
:1003540040EA0C409FE7C7F1200CBB4022FA0CFE98
:100364004EEA030E01FA07F420FA0CF521FA0CF315
:100374004FEA1E482543B3FBF8F92C0C08FB19334C
:100384001FFA8EFA44EA034309FB0AF49C4202FA78
:1003940007F200FA07F10BD91EEB030309F1FF3052
:1003A40080F087809C4240F28480A9F10209734462
:1003B4001B1BADB2B3FBF8F008FB103345EA034452
:1003C40000FB0AFAA24508D91EEB040400F1FF332E
:1003D4006BD2A24569D90238744440EA0940A0FBB3
:1003E4000289A4EB0A044C45C2464B4654D351D06F
:1003F400002E69D0B1EB0A0564EB030404FA0CFC8B
:10040400FD40FC404CEA0505C6E90054002747E7D7
:10041400C2F1200320FA03F7954001FA02F021FA11
:1004240003F34FEA154E3843010CB3FBFEF71FFAF2
:1004340085F80EFB173341EA034107FB08F38B42AF
:1004440004FA02F407D9691807F1FF3C2FD28B4252
:100454002DD9023F2944CB1A81B2B3FBFEF00EFB27
:10046400103341EA034100FB08F38B4207D96918B2
:1004740000F1FF3C17D28B4215D902382944C91A1E
:1004840040EA07473BE73746304609E70746E7E6D1
:100494001846FBE64145ABD2B8EB020A69EB0E0203
:1004A40001381346A4E76046E9E7184695E767462E
:1004B400D1E781467CE702382C4447E7ACF1020CD3
:1004C4002B442FE7384608E73746E9E6704700BF74
:1004D40010B504460E4B18784FF47A73B3FBF0F35F
:1004E4000C4A1068B0FBF3F000F094F868B90F2CD4
:1004F40001D901200AE0002221464FF0FF3000F02C
:1005040049F8034B5C60002000E0012010BD00BFEF
:10051400000000200C00002008B50B4B1A6842F4C0
:1005240000721A601A6842F480621A601A6842F40F
:1005340080721A60032000F01BF80020FFF7C8FF48
:1005440001F098F9002008BD003C0240034A1168FC
:10055400034B1B780B441360704700BF3800002026
:1005640000000020014B1868704700BF38000020CD
:10057400074AD36823F4E0631B041B0C000200F455
:10058400E060184340F0BF6040F40030D060704732
:1005940000ED00E030B4174BDB68C3F30223C3F172
:1005A4000704042C28BF04241D1D062D18D9033B61
:1005B4004FF0FF3505FA04F421EA0401994005FAE5
:1005C40003F322EA0303194300280BDB0901C9B230
:1005D40000F1604000F5614080F8001330BC7047C2
:1005E4000023E5E700F00F000901C9B2024B1954DA
:1005F400F4E700BF00ED00E014ED00E000F01F029E
:10060400400901239340024A42F82030704700BF5A
:1006140000E100E00138B0F1807F0AD2064B586057
:10062400064AF02182F823100020986007221A60FD
:1006340070470120704700BF10E000E000ED00E0CB
:10064400042805D0054A136823F004031360704797
:10065400024A136843F004031360704710E000E09B
:1006640008B500F0BFFF08BD90F83530DBB2022BAF
:1006740003D08023436501207047052380F835307B
:100684000268136823F00103136000207047000020
:1006940000230F2B00F2C580F0B482B039E00422AD
:1006A40000E00022B2403A4302345E4E46F8242071
:1006B4005D4A1468EA4302EA04064F6817F4803F6F
:1006C40001D045EA0406584C2660646802EA040630
:1006D4004F6817F4003F01D045EA0406524C6660A7
:1006E400A46802EA04064F6817F4801F01D045EAA3
:1006F40004064D4CA660E46822404E6816F4001FC0
:1007040001D045EA0402484CE26001330F2B00F2A9
:10071400858001229A400C6804EA0205AA42F4D1B9
:100724004C68022C01D0122C10D1DE08083650F887
:1007340026C003F00704A7000F24BC402CEA040CD5
:100744000C69BC4044EA0C0440F8264004685F008D
:100754000326BE40F64306EA040C4C6804F0030486
:10076400BC4044EA0C0404604C6804F1FF3CBCF156
:10077400010F03D9112C01D0122C10D1846806EA80
:10078400040CCC68BC4044EA0C048460446824EA49
:1007940002024C68C4F300149C4014434460C268D1
:1007A40016408A68BA403243C2604A6812F0805FD9
:1007B400ABD0002201921D4A546C44F4804454642A
:1007C400526C02F480420192019A9C08A61C154ABC
:1007D40052F8267003F0030296000F22B24027EA73
:1007E4000207134A90423FF45CAF02F580629042E4
:1007F4000ED002F5806290420CD002F580629042E5
:100804000AD002F5806290423FF449AF072249E7DB
:10081400012247E7022245E7032243E702B0F0BC86
:100824007047704700380140003C014000380240E6
:100834000000024012B90904816170478161704768
:1008440008B5054B5B69034200D108BD024B5861F2
:1008540000F0AEFEF9E700BF003C0140002800F0C4
:10086400BB8170B582B00446036813F0010F3BD01E
:10087400A74B9B6803F00C03042B2CD0A44B9B6860
:1008840003F00C03082B21D06368B3F5803F4FD0ED
:10089400B3F5A02F52D09E4B1A6822F480321A600E
:1008A4001A6822F480221A606368002B50D0FFF784
:1008B40059FE0546964B1B6813F4003F14D1FFF70D
:1008C40051FE401B6428F5D903208AE1904B5B68F4
:1008D40013F4800FD8D08E4B1B6813F4003F03D061
:1008E4006368002B00F07A81236813F0020F55D05F
:1008F400874B9B6813F00C0F3ED0854B9B6803F02D
:100904000C03082B33D0E368002B68D0814B012201
:100914001A60FFF727FE05467D4B1B6813F0020F94
:1009240054D1FFF71FFE401B0228F5D9032058E1DC
:10093400774A136843F480331360B5E7744B1A683D
:1009440042F480221A601A6842F480321A60ABE7DB
:10095400FFF708FE05466E4B1B6813F4003FC3D037
:10096400FFF700FE401B6428F5D9032039E1684BEA
:100974005B6813F4800FC6D1654B1B6813F0020F3C
:1009840004D0E368012B01D001202AE1604A1368F6
:1009940023F0F803216943EAC1031360236813F0C9
:1009A400080F40D0636963B35B4B01221A60FFF701
:1009B400D9FD0546564B5B6F13F0020F33D1FFF799
:1009C400D1FD401B0228F5D903200AE1504A1368DF
:1009D40023F0F803216943EAC1031360DEE74D4BBA
:1009E40000221A60FFF7BEFD0546494B1B6813F051
:1009F400020FD3D0FFF7B6FD401B0228F5D9032020
:100A0400EFE0454B00221A60FFF7ACFD0546404B72
:100A14005B6F13F0020F06D0FFF7A4FD401B022802
:100A2400F5D90320DDE0236813F0040F79D0384BA7
:100A34001B6C13F0805F33D100230193344B1A6C89
:100A440042F080521A641B6C03F080530193019BA3
:100A54000125324B1B6813F4807F23D0A368012B3C
:100A640034D0052B38D02A4B1A6F22F001021A67B2
:100A74001A6F22F004021A67A368002B36D0FFF71E
:100A840071FD0646224B1B6F13F0020F48D1FFF78E
:100A940069FD801B41F288339842F3D90320A0E01A
:100AA4000025D6E71D4A136843F480731360FFF7EB
:100AB40059FD0646194B1B6813F4807FCED1FFF70E
:100AC40051FD801B0228F5D903208AE0104A136FD8
:100AD40043F001031367CFE70D4B1A6F42F0040292
:100AE4001A671A6F42F001021A67C5E7FFF73AFD69
:100AF4000646074B1B6F13F0020F11D0FFF732FDB0
:100B0400801B41F288339842F3D9032069E000BF87
:100B14000038024000004742800E47420070004007
:100B2400E5B9A369002B5BD0304A926802F00C024D
:100B3400082A58D0022B17D02D4B00221A60FFF739
:100B440011FD0446294B1B6813F0007F42D0FFF7C8
:100B540009FD001B0228F5D9032042E0234A136C47
:100B640023F080531364DCE7214B00221A60FFF763
:100B7400F9FC05461D4B1B6813F0007F06D0FFF7F8
:100B8400F1FC401B0228F5D903202AE0E369226A1C
:100B94001343626A43EA8213A26A5208013A43EA9F
:100BA4000243E26A43EA0263104A5360104B012293
:100BB4001A60FFF7D7FC04460C4B1B6813F0007F48
:100BC40006D1FFF7CFFC001B0228F5D9032008E06B
:100BD400002006E0002004E001207047012000E02E
:100BE400002002B070BD0120FBE700BF00380240C6
:100BF40060004742324B9B6803F00C03042B5CD02B
:100C0400082B01D02F4870472DE9F04B2C4B5A6824
:100C140002F03F025B6813F4800F2BD0284B5B6813
:100C2400C3F388131E4600275C010025E41A65EB14
:100C34000705A90141EA9461A001001B61EB0501CC
:100C4400CB0043EA5073C400A01943EB07014B02E5
:100C540043EAD0534402204619460023FFF7B8FA6A
:100C6400174B5B68C3F3014301335B00B0FBF3F044
:100C7400BDE8F08B124B5B68C3F388131E46002754
:100C84005C010025E41A65EB0705A90141EA9461BA
:100C9400A001001B61EB0501CB0043EA5073C400C3
:100CA400A01943EB07018B0243EA905384022046C8
:100CB40019460023FFF78CFAD2E70348704700BFB8
:100CC400003802400024F40000127A00002800F0EA
:100CD4009D8070B504464F4B1B6803F00F038B4295
:100CE40009D2CBB24B4A1370136803F00F038B4243
:100CF40001D0012070BD236813F0020F17D013F048
:100D0400040F04D0444A936843F4E0539360236887
:100D140013F0080F04D0404A936843F4604393608F
:100D24003D4A936823F0F003A068034393600D46A3
:100D3400236813F0010F32D06368012B21D09A1E6F
:100D4400012A25D9344A126812F0020F60D03249C0
:100D54008A6822F0030213438B60FFF703FC064604
:100D64002D4B9B6803F00C036268B3EB820F16D023
:100D7400FFF7F8FB801B41F288339842F0D9032037
:100D8400B8E7254A126812F4003FE0D10120B1E728
:100D9400214A126812F0007FD9D10120AAE71D4B25
:100DA4001B6803F00F03AB4209D9EAB2194B1A705E
:100DB4001B6803F00F03AB4201D001209AE72368BC
:100DC40013F0040F06D0144A936823F4E053E16847
:100DD4000B439360236813F0080F07D00E4A9368FF
:100DE40023F46043216943EAC1039360FFF702FFE0
:100DF400094B9B68C3F30313084AD35CD840084BE0
:100E040018600020FFF764FB002073E7012070479F
:100E140001206FE7003C024000380240A01A00089D
:100E24000C000020014B1868704700BF0C00002024
:100E340008B5FFF7F7FF044B9B68C3F38223034A0B
:100E4400D35CD84008BD00BF00380240B01A000887
:100E540008B5FFF7E7FF044B9B68C3F34233034A2B
:100E6400D35CD84008BD00BF00380240B01A000867
:100E74000268D36823F49073D3600268536923F043
:100E840001035361202380F83A30704790F83930D9
:100E9400DBB2212B2AD18368B3F5805F16D0036AB5
:100EA4005A1C02621A7803685A60C38C013B9BB2D5
:100EB400C384EBB90268D36823F08003D36002686B
:100EC400D36843F04003D36000207047036A1B8853
:100ED4000268C3F30803536003691BB9036A02334E
:100EE4000362E2E7036A01330362DEE7022070472C
:100EF400002070472DE9F843044601680A6922F48A
:100F04004052C36813430B610168CA6822F4164255
:100F140022F00C0283680069034360690343E069BB
:100F240003431343CB6021684A6922F44072A369E6
:100F340013434B61E369B3F5004F60D02368B84AAB
:100F4400934200F0148102F58062934200F00F8115
:100F5400FFF76EFF00EB800000EB80006568AD00DA
:100F6400B0FBF5F5AF4FA7FB05356D092E01FFF773
:100F74005FFF00EB800000EB80006568AD00B0FB14
:100F8400F5F9FFF755FF00EB800000EB8000656882
:100F9400AD00B0FBF5F5A7FB05356D094FF064080E
:100FA40008FB15952D013235A7FB05356D0905F0B4
:100FB400F0053544FFF73CFF00EB800000EB8000B8
:100FC4006668B600B0FBF6F6FFF732FF00EB800070
:100FD40000EB800063689B00B0FBF3F0A7FB0030DC
:100FE400400908FB10684FEA081808F13208A7FB0B
:100FF4000837C7F3431723682F449F600DE1236824
:10100400874A93425BD002F58062934257D0FFF740
:101014000FFF00EB800000EB800065686D00B0FB03
:10102400F5F5804FA7FB05356D092E01FFF700FF8D
:1010340000EB800000EB800065686D00B0FBF5F903
:10104400FFF7F6FE00EB800000EB800065686D00A2
:10105400B0FBF5F5A7FB05356D094FF0640808FBF7
:101064001595ED003235A7FB05356D096D0005F4C6
:10107400F8753544FFF7DCFE00EB800000EB8000E0
:1010840066687600B0FBF6F6FFF7D2FE00EB800050
:1010940000EB800063685B00B0FBF3F3A7FB032362
:1010A4005B0908FB13684FEAC80808F13208A7FB7C
:1010B4000837C7F3421723682F449F60ADE0FFF75A
:1010C400C7FE00EB800000EB800065686D00B0FB9C
:1010D400F5F5544FA7FB05356D092E01FFF7B8FE52
:1010E40000EB800000EB800065686D00B0FBF5F953
:1010F400FFF7AEFE00EB800000EB800065686D003A
:10110400B0FBF5F5A7FB05356D094FF0640808FB46
:101114001595ED003235A7FB05356D096D0005F415
:10112400F8753544FFF794FE00EB800000EB800077
:1011340066687600B0FBF6F6FFF78AFE00EB8000E7
:1011440000EB800063685B00B0FBF3F3A7FB0323B1
:101154005B0908FB13684FEAC80808F13208A7FBCB
:101164000837C7F3421723682F449F6055E0FFF701
:101174006FFE00EB800000EB80006568AD00B0FB03
:10118400F5F5284FA7FB05356D092E01FFF760FE25
:1011940000EB800000EB80006568AD00B0FBF5F962
:1011A400FFF756FE00EB800000EB80006568AD00A1
:1011B400B0FBF5F5A7FB05356D094FF0640808FB96
:1011C40015952D013235A7FB05356D0905F0F005A0
:1011D4003544FFF73DFE00EB800000EB80006668BD
:1011E400B600B0FBF6F6FFF733FE00EB800000EB31
:1011F400800063689B00B0FBF3F0A7FB003040095C
:1012040008FB10684FEA081808F13208A7FB0837F2
:10121400C7F3431723682F449F60BDE8F88300BFDA
:10122400001001401F85EB5158B310B5044690F8E7
:1012340039300BB3242384F839302268D36823F47B
:101244000053D3602046FFF755FE2268136923F448
:10125400904313612268536923F02A03536122687F
:10126400D36843F40053D3600020E063202384F860
:10127400393084F83A3010BD80F8383000F044FB3F
:10128400D8E70120704790F83930DBB2202B16D113
:10129400B9B1C2B190F83830012B16D00162828402
:1012A400C2840023C363212280F8392080F83830B7
:1012B4000168CA6842F08002CA601846704702207A
:1012C400704701207047012070470220704790F852
:1012D4003A30DBB2202B1BD1E1B1EAB190F83830BF
:1012E400012B1BD081628285C2850023C363222225
:1012F40080F83A2080F8383001684A6942F00102E7
:101304004A610168CA6842F49072CA60184670471C
:101314000220704701207047012070470220704767
:1013240008B50168CB6823F04003CB60202380F824
:10133400393000F0D5F9002008BD08B590F83A30EE
:10134400DBB2222B40D18368B3F5805F0ED00369F2
:1013540003BB03685A68836A591C81621A70C38D7F
:10136400013B9BB2C385F3B100202EE0826A03697E
:1013740043B903685B68C3F308031380836A0233C9
:101384008362ECE703685B68DBB21380836A013332
:101394008362E4E703685B68826A511C816203F03C
:1013A4007F031370DBE70268D36823F49073D36080
:1013B4000268536923F001035361202380F83A3013
:1013C40000F022F9002000E0022008BD7047000070
:1013D40010B5044602681368D168526913F00F000F
:1013E40005D113F0200F02D011F0200F53D10028A3
:1013F40067D012F0010202D111F4907F61D013F092
:10140400010F06D011F4807F03D0E06B40F001009F
:10141400E06313F0040F04D01AB1E06B40F0020053
:10142400E06313F0020F04D01AB1E06B40F0040043
:10143400E06313F0080F04D01AB1E26B42F0080223
:10144400E263E26B002A48D013F0200F02D011F0BF
:10145400200F24D123685B6903F04003E26B12F090
:10146400080F00D13BB32046FFF702FD23685A69F9
:1014740012F0400F1BD05A6922F040025A61636B8C
:101484008BB11A4A1A65606BFFF7EEF828B3606BEC
:10149400036D984721E02046FFF74FFF1DE02046EB
:1014A400FFF74BFFD6E72046FFF790FF15E02046F5
:1014B400FFF78CFF11E02046FFF788FF0023E3636A
:1014C4000BE013F0800F02D011F0800F06D113F05F
:1014D400400F02D011F0400F04D110BD2046FFF799
:1014E400D5FCFAE72046FFF71BFFF6E7F5140008E2
:1014F40008B5806B0023C385C384FFF767FF08BD6D
:1015040030B58BB000240194254B1A6B42F00402D1
:101514001A631A6B02F004020192019A02941A6B84
:1015240042F080021A631A6B02F080020292029A5D
:1015340003941A6B42F001021A631A6B02F001025F
:101544000392039A04941A6B42F002021A631B6B0F
:1015540003F002030493049B124D224620212846E3
:10156400FFF768F94FF4005305930F4B0693079464
:1015740005A90E48FFF78CF8202305930123069351
:101584000794089405A92846FFF782F822462146C5
:101594002820FEF7FFFF2820FFF730F80BB030BDFE
:1015A4000038024000000240000021100008024000
:1015B4000B4B1B88B3F5FA7F04D0FA2B06D07D2B96
:1015C40008D07047064BFA221A807047044B7D22DC
:1015D4001A807047024B4FF4FA721A80F1E700BF89
:1015E40008000020064A138801339BB21380054A81
:1015F4001288934202D9024B00221A80704700BF1E
:101604002C0000200800002008B502680E4B9A4206
:1016140008D00E4B5B8801220D4919440D48FFF791
:1016240056FE08BD012220210B48FFF703F9074AA3
:10163400538801339BB2538053889BB2C82BE8D1A3
:10164400134600225A80E4E7004400402C000020A6
:101654003C000020CC010020000002400022134680
:1016640000E00132032A08DC1A498320C8540133FC
:101674009BB2C82BF5D10023F3E772B6164A9188C2
:1016840089B2D28892B2914203D0134AD38062B60F
:10169400704700B583B0104AD38093889BB20D493C
:1016A400CB5C8DF80730938801339BB29380938889
:1016B4009BB2C82B09D001220DF107010748FFF79F
:1016C400E2FD62B603B05DF804FB134600229A8083
:1016D400F1E700BF040100202C000020CC01002011
:1016E4000268144B9A4200D07047134B9A8892B206
:1016F400DB889BB29A42F7D000B583B00E4A938838
:101704009BB20E49CB5C8DF80730938801339BB2B2
:10171400938093889BB2C82B08D001220DF1070156
:101724000748FFF7B0FD03B05DF804FB1346002241
:101734009A80F2E7004400402C00002004010020BD
:10174400CC010020FEE7000008B50B480B4B0360FA
:101754004FF41653436000238360C36003610C227B
:1017640042618361C361FFF75FFD00B908BDDC21FD
:101774000348FFF7E7FF00BFCC010020004400400E
:10178400B81A000800B595B0002201922A4B196CD2
:1017940041F0805119641B6C03F080530193019B49
:1017A400029226490B6823F4404343F400430B6040
:1017B4000B6803F440430293029B02210891012326
:1017C4000B9310230C930E910F9210934FF4A87364
:1017D4001193042312930723139308A8FFF73EF8E9
:1017E40008BB0F23039302210491002305934FF4B4
:1017F40080520692079303A8FFF768FAB8B9FFF777
:1018040011FB0F4BA3FB00308009FEF703FF0420FC
:10181400FEF716FF002211464FF0FF30FEF7BAFE26
:1018240015B05DF804FBB1210648FFF78BFFBF211B
:101834000448FFF787FF00BF0038024000700040F3
:10184400D34D6210B81A000808B5FEF765FEFFF71D
:1018540099FFFFF755FEFFF777FF0122034904487C
:10186400FFF735FDFFF7FAFEFEE700BF3C0000205E
:10187400CC01002010B582B000240094214B5A6C96
:1018840042F480425A645A6C02F480420092009AF4
:1018940001941A6C42F080521A641B6C03F080535A
:1018A4000193019B0720FEF763FE224621466FF059
:1018B4000B00FEF76FFE224621466FF00A00FEF78A
:1018C40069FE224621466FF00900FEF763FE2246B8
:1018D40021466FF00400FEF75DFE224621466FF0BC
:1018E4000300FEF757FE224621466FF00100FEF783
:1018F40051FE224621464FF0FF30FEF74BFE02B068
:1019040010BD00BF003802400268144B9A4200D058
:10191400704710B586B00024009403F5FA331A6CAE
:1019240042F400321A641B6C03F400330093009BEE
:101934000C23019302230293039404940723059335
:1019440001A90748FEF7A4FE224621462620FEF7F9
:1019540021FE2620FEF752FE06B010BD00440040D2
:10196400000002407047FEE7FEE7FEE7FEE770472F
:101974007047704708B5FEF7E9FDFEF771FE08BD34
:1019840008B50248FFF724FD08BD00BFCC010020C4
:1019940008B54FF40050FEF753FF08BD0F49D1F8C6
:1019A400883043F47003C1F888300D4B1A6842F054
:1019B40001021A60002098601A6822F0847222F4EE
:1019C40080321A60074A5A601A6822F480221A6028
:1019D400D8604FF000638B60704700BF00ED00E0FB
:1019E4000038024010300024DFF834D0002103E036
:1019F4000C4B5B58435004310B480C4B42189A4231
:101A0400F6D30B4A02E0002342F8043B094B9A4206
:101A1400F9D3FFF7C3FF00F011F8FFF715FF704784
:101A240000800120D81A00080000002010000020C7
:101A3400100000200C020020FEE7000070B50D4EDF
:101A44000D4CA41BA4100025A54209D10B4E0C4C2F
:101A540000F018F8A41BA4100025A54205D170BD00
:101A640056F8253098470135EEE756F82530984763
:101A74000135F2E7D01A0008D01A0008D01A00087D
:101A8400D41A0008F8B500BFF8BC08BC9E467047DD
:0C1A9400F8B500BFF8BC08BC9E467047C7
:101AA000000000000000000001020304060708090E
:101AB00000000000010203042E2E2F5372632F6DCD
:081AC00061696E2E6300000055
:081AC8003CE7FF7F0100000074
:041AD000B901000850
:041AD4009501000870
:101AD8000100000010000000F40100000024F400E0
:04000005080019EDE9
:00000001FF
